:100000000C94C3000C94F7010C94D0010C94890556
:100010000C9432050C94D1040C941E020C943502FD
:100020000C94EB000C9409040C94EB000C94EB0082
:100030000C94EB000C9433040C94EB000C94EB0048
:100040000C9467080C94EB000C940E070C94E806D3
:100050000C94EB000C94EB000C94EB000C94EB0074
:100060000C94EB000C94EB003A000000000025001B
:1000700028002B0000000008000201000003040714
:100080000000000000000000000000000000000070
:10009000021405050000000002010A010000000032
:1000A0000000000000000000000000000000000050
:1000B000060305010101010A060101010501050A06
:1000C00002060202000000000000000024002700D9
:1000D0002A000102040810204080010204081020B8
:1000E00001020408102004040404040404040202AD
:1000F00002020202030303030303202D2072656141
:10010000647900002E0206030D04E905CA070C0BF2
:10011000060D210E650F6A10C811931203153417CE
:1001200003181819161B431E2F1F65207823E92476
:100130002A251F26113E030A003100434320696E21
:1001400069740041736B53696E2B2B2056342E312A
:100150002E3020284D61792032382032303139203C
:1001600030363A34343A333929000A000A000A009A
:10017000FFFFFF2E2E2E2E2E2E2E2E2E2E000000B6
:1001800010400000860B11241FBECFEFD8E0DEBF69
:10019000CDBF11E0A0E0B1E0E2E6FDE102C00590D4
:1001A0000D92AE3AB107D9F723E0AEEAB1E001C053
:1001B0001D92A331B207E1F710E0C3ECD0E004C018
:1001C0002197FE010E947A0DC23CD107C9F70E9417
:1001D000B1080C94AF0E0C940000FC01918D228D9F
:1001E000892F90E0805C9F4F821B91098F73992724
:1001F000089580E090E0892B29F00E947506811116
:100200000C94000008950895FC0110860895E09173
:10021000B701F091B8018485811102C081E0838724
:10022000089580E0089508950895FC019FB7F8941B
:10023000718360839FBF08950C94180E0C94180E60
:100240000C94180E0C94180E0C94180EFC01848D4E
:10025000DF01A80FB11DA35ABF4F2C91848D90E0F0
:1002600001968F739927848FA689B7892C93A089CB
:10027000B1898C9180648C93938D848D981306C082
:100280000288F389E02D80818F7D8083089590E03E
:10029000FC01EC58FF4F2491FC01EE52FF4F3491CA
:1002A000FC01EA51FF4FE491EE2309F43CC0222304
:1002B00039F1233091F038F42130A9F0223001F5E2
:1002C00084B58F7D12C0273091F02830A1F0243002
:1002D000B9F4809180008F7D03C0809180008F777A
:1002E000809380000DC084B58F7784BD09C0809154
:1002F000B0008F7703C08091B0008F7D8093B000F5
:10030000F0E0EE0FFF1FE659FF4FA591B4919FB7A4
:10031000F894611104C08C913095382302C0EC919F
:100320003E2B3C939FBF0895CF93DF9390E0FC0159
:10033000EE52FF4F2491FC01EA51FF4F8491882334
:1003400061F190E0880F991FFC01E853FF4FC591C0
:10035000D491FC01E659FF4FA591B491611109C0F8
:100360009FB7F8948881209582238883EC912E236F
:100370000BC0623061F49FB7F8948881322F3095BA
:1003800083238883EC912E2B2C939FBF06C08FB7BD
:10039000F894E8812E2B28838FBFDF91CF910895A9
:1003A0001F920F920FB60F9211242F933F934F93EA
:1003B0005F936F937F938F939F93AF93BF93EF93CD
:1003C000FF93E0910201F09103010995FF91EF91F4
:1003D000BF91AF919F918F917F916F915F914F915D
:1003E0003F912F910F900FBE0F901F9018951F9265
:1003F0000F920FB60F9211242F933F934F935F9359
:100400006F937F938F939F93AF93BF93EF93FF93DC
:10041000E0910001F09101010995FF91EF91BF91E9
:10042000AF919F918F917F916F915F914F913F918C
:100430002F910F900FBE0F901F9018951F920F9243
:100440000FB60F9211248F930FB6F894A895809150
:100450006000886180936000109260000FBE8F91F1
:100460000F900FBE0F901F9018951F920F920FB60E
:100470000F9211242F933F934F935F936F937F932A
:100480008F939F93AF93BF93CF93DF93EF93FF939C
:10049000C7E5D2E060E089810E9447011092B10077
:1004A0006A817B818C819D810E94FA0C6093B300EC
:1004B00081E08E83FF91EF91DF91CF91BF91AF915A
:1004C0009F918F917F916F915F914F913F912F916C
:1004D0000F900FBE0F901F90189561E08AE00C946A
:1004E000470160E08AE00C944701FC01838988237E
:1004F00011F061E001C060E082890C944701089529
:1005000008950895CF93DF93EC01FE016491662373
:1005100039F08AEB91E00E947F062196892BA9F79A
:10052000DF91CF910895089508952FB7F894FC01B5
:10053000808191812FBF0895FF920F931F93CF93D6
:10054000DF93EC018B01FFB6F8940E949502BC0189
:10055000C8010E941501B801CE010E941501FFBE1D
:10056000DF91CF911F910F91FF9008956F927F922D
:100570008F92BF92CF92DF92EF92FF920F931F93D1
:10058000CF93DF93FB01258136814781232B242BD9
:1005900071F18B01BFB6F89424812F702061248300
:1005A000F82EE92E0E949502009791F1EC01229716
:1005B000209771F16D807E808F80F80125813681D2
:1005C0004781CE01029662167306840608F04DC07C
:1005D000261937094809258336834783F82EE92EE3
:1005E0000E949502009711F7C0E0D0E0E1CF6E5F66
:1005F0007F4F0296DF91CF911F910F91FF90EF9067
:10060000DF90CF90BF908F907F906F900C949C0262
:10061000C0E0D0E060E070E06801F2E0CF0ED11CF5
:10062000C6010E941501B6018F2D9E2D0E94150155
:10063000209769F08D819E81AF81F80125813681F7
:100640004781821B930BA40B8D839E83AF83BFBE18
:10065000DF91CF911F910F91FF90EF90DF90CF909E
:10066000BF908F907F906F900895BC01D5CFEF928F
:10067000FF921F93CF93DF93EC017B01888911E0F8
:10068000180F188BFE01E80FF11D228530E0A4E65B
:10069000B0E00E94EB0C2AE030E040E050E00E9425
:1006A000C90C2D833E834F8310FF0AC08B8988239A
:1006B00011F060E001C061E08A890E94470103C037
:1006C000CE010E947502BE01C701DF91CF911F913B
:1006D000FF90EF900C94B6021F93CF93DF93EC0141
:1006E0001FB7F89498898885981720F0188A9985FB
:1006F000911108C0CE010E9437031FBFDF91CF9137
:100700001F91089589898F5F898B891798F3CE018E
:100710000E94750248E050E068E870E0CE0108965B
:100720000E948E0CEACFEF92FF920F931F93CF930C
:10073000DF93EC01EFB6F8940E9495028C01892BAF
:1007400061F0FFB6F894CE010E9495020E949502D6
:10075000BC01CE010E941501FFBEEFBEC801DF91B2
:10076000CF911F910F91FF90EF900895DF92EF923C
:10077000FF920F931F93CF93DF938C01DFB6F89412
:100780007C0182E0E80EF11CC8010E9495020097EE
:10079000B1F1EC01229799F18D819E81AF81019792
:1007A000A1098D839E83AF838D819E81AF81892B2B
:1007B0008A2B29F5C8010E9493038C81982F9F7082
:1007C00080FF0AC09C83E881F9810190F081E02DCF
:1007D000B801CE01099506C0BE016E5F7F4FC7010B
:1007E0000E949C02C8010E949502009729F4C0E073
:1007F000D0E02097C9F603C0EC012297FACFDFBE04
:10080000C801DF91CF911F910F91FF90EF90DF9082
:1008100008951F920F920FB60F9211242F933F93BA
:100820004F935F936F937F938F939F93AF93BF93F8
:10083000EF93FF93E0E6F2E084818F5F8483CF0142
:100840000E94B603FF91EF91BF91AF919F918F915D
:100850007F916F915F914F913F912F910F900FBEBC
:100860000F901F9018951F920F920FB60F921124A0
:100870002F933F934F935F936F937F938F939F93A8
:10088000AF93BF93EF93FF9385E692E00E94B60388
:10089000FF91EF91BF91AF919F918F917F916F9158
:1008A0005F914F913F912F910F900FBE0F901F902E
:1008B0001895CF93C82F803128F460E38AEB91E03C
:1008C0000E947F066C2F70E080E090E040E1CF91C5
:1008D0000C945207FF920F931F93CF93DF938C01D9
:1008E000EB0188E690E00E948202D8011296ED9119
:1008F000FC91139781A10E94590488810E94590498
:1009000089810E9459048A810E9459048B810E9426
:1009100059048C810E9459048D810E9459048E8152
:100920000E9459048F810E94590488850E945904AD
:1009300089850E945904F12C2F2D30E0888190E0A8
:1009400009972817390744F4FE01E20FF31F828547
:100950000E945904F394F0CF84E691E00E9440078E
:100960008CE691E00E948202D8011296ED91FC91F2
:100970001397828581110EC082E0828781E0838790
:1009800084871586138A128A65E672E0CF01029683
:100990000E94370381E0DF91CF911F910F91FF906B
:1009A00008951F920F920FB60F9211242F933F9329
:1009B0004F935F936F937F938F939F93AF93BF9367
:1009C000CF93EF93FF9329B1C091B6018091B50108
:1009D0009091B401322F309593238223892B9091EB
:1009E0006D00C227C923C8232093B601CC2341F14F
:1009F000C0FF03C0E0E0F0E00995C1FF03C0E0E004
:100A0000F0E00995C2FF03C0E0E0F0E00995C3FF04
:100A100003C0E0E0F0E00995C4FF03C0E0E0F0E0CF
:100A20000995C5FF03C0E0E0F0E00995C6FF03C0EB
:100A3000E0E0F0E00995C7FF03C0E0E0F0E00995D1
:100A4000FF91EF91CF91BF91AF919F918F917F9146
:100A50006F915F914F913F912F910F900FBE0F902B
:100A60001F9018951F920F920FB60F9211242F937B
:100A70003F934F935F936F937F938F939F93AF9326
:100A8000BF93CF93EF93FF9326B1C091B3018091B1
:100A9000B2019091B101322F309593238223892B9B
:100AA00090916C00C227C923C8232093B301CC23A3
:100AB000F1F0C0FF03C0E0E0F0E00995C1FF03C022
:100AC000E0E0F0E00995C2FF03C0E0E0F0E0099546
:100AD000C3FF03C0E0E0F0E00995C4FF03C0E0E01D
:100AE000F0E00995C5FF03C0E0E0F0E00995FF9153
:100AF000EF91CF91BF91AF919F918F917F916F9126
:100B00005F914F913F912F910F900FBE0F901F90CB
:100B100018951F920F920FB60F9211242F933F93A7
:100B20004F935F936F937F938F939F93AF93BF93F5
:100B3000CF93EF93FF9323B1C091B0018091AF01A8
:100B40009091AE01322F309593238223892B90917F
:100B50006B00C227C923C8232093B001CC23F1F036
:100B6000C0FF03C0E0E0F0E00995C1FF03C0E0E092
:100B7000F0E00995C2FF03C0E0E0F0E00995C3FF93
:100B800003C0E0E0F0E00995C4FF03C0E0E0F0E05E
:100B90000995C5FF03C0E0E0F0E00995FF91EF91F2
:100BA000CF91BF91AF919F918F917F916F915F9105
:100BB0004F913F912F910F900FBE0F901F9018955E
:100BC00008958EBD00000DB407FEFDCF8EB50895CB
:100BD0008CBD9DBD0895CF93C82F80E590E00E9405
:100BE000E8050E9471028C2F0E94E105C82F0E9427
:100BF0006D028C2FCF910895CF93DF93D82FC62FFE
:100C000080E590E00E94E8050E9471028D2F8C2BF8
:100C10000E94E10580E00E94E105C82F0E946D025C
:100C20008C2FDF91CF910895CF92DF92EF92FF92B8
:100C30000F931F93CF93DF936C017A018B01C0E078
:100C4000D0E0CE15DF0581F0D8016D918D01D60180
:100C5000ED91FC910190F081E02DC6010995892B61
:100C600011F02196EECF7E01C701DF91CF911F9148
:100C70000F91FF90EF90DF90CF900895089580E05E
:100C800090E00895FC01538D448D252F30E0842F92
:100C900090E0821B930B541710F0CF9608950197A4
:100CA0000895FC01918D828D981761F0828DDF018E
:100CB000A80FB11D5D968C91928D9F5F9F73928F4F
:100CC00090E008958FEF9FEF0895FC01918D828D44
:100CD000981731F0828DE80FF11D858D90E0089511
:100CE0008FEF9FEF08950E94A10E8AEB91E00E9482
:100CF000ED0021E0892B09F420E0822F0895EF9286
:100D0000FF920F931F93CF93DF93EC0181E0888FC5
:100D10009B8D8C8D981305C0E889F989808185FDAC
:100D200024C0F62E0B8D10E00F5F1F4F0F7311279D
:100D3000E02E8C8DE8120CC00FB607FCFACFE889C4
:100D4000F989808185FFF5CFCE010E942601F1CF80
:100D50008B8DFE01E80FF11DE35AFF4FF0820B8FE0
:100D6000EA89FB898081806207C0EE89FF89608300
:100D7000E889F98980818064808381E090E0DF9157
:100D8000CF911F910F91FF90EF900895CF93DF9334
:100D9000EC01888D8823C9F0EA89FB89808185FD73
:100DA00005C0A889B9898C9186FD0FC00FB607FCD4
:100DB000F5CF808185FFF2CFA889B9898C9185FF15
:100DC000EDCFCE010E942601E7CFDF91CF910895AC
:100DD0001F920F920FB60F9211242F933F934F93B0
:100DE0005F936F937F938F939F93AF93BF93EF9393
:100DF000FF938AEB91E00E942601FF91EF91BF9152
:100E0000AF919F918F917F916F915F914F913F91A2
:100E10002F910F900FBE0F901F9018951F920F9259
:100E20000FB60F9211242F938F939F93EF93FF93FD
:100E3000E091CA01F091CB018081E091D001F09165
:100E4000D10182FD12C090818091D3018F5F8F7399
:100E50002091D401821751F0E091D301F0E0E654E3
:100E6000FE4F958F8093D30101C08081FF91EF9158
:100E70009F918F912F910F900FBE0F901F901895FB
:100E8000009769F0FC0101900020E9F73197AF016C
:100E9000481B590BBC018AEB91E00C94140680E0CE
:100EA00090E008958F929F92AF92BF920F931F93FD
:100EB000CF93DF93CDB7DEB7A1970FB6F894DEBF1F
:100EC0000FBECDBF19A2423008F44AE08E010F5D7B
:100ED0001F4F842E912CA12CB12CA50194010E94AE
:100EE000C90CE62FB901CA0101501109EA3014F406
:100EF000E05D01C0E95CD801EC93232B242B252B6A
:100F000061F7C8010E944007A1960FB6F894DEBFB2
:100F10000FBECDBFDF91CF911F910F91BF90AF90CA
:100F20009F908F900895EF92FF920F931F93CF930E
:100F3000DF937C01D62FC42F122F80E590E00E9412
:100F4000E8050E9471028D2F0E94E1058C2F0E94FE
:100F5000E1050E946D020E94E00560E88D2F0E946D
:100F6000FC05082FC81779F1112371F02FEF210F1D
:100F70004C2F6D2FC7010E9493078FEC97E00197CC
:100F8000F1F700C000001FC08FE891E00E94400709
:100F90008D2F0E94590489E991E00E9440078C2F0F
:100FA0000E94590485EA91E00E944007802F0E9428
:100FB00059048EE691E0DF91CF911F910F91FF9040
:100FC000EF900C948202DF91CF911F910F91FF90CF
:100FD000EF900895AF92BF92DF92EF92FF920F933E
:100FE0001F93CF93DF93EC01DFB6F8948C818F7061
:100FF0008C8385E692E00E949502009781F102972A
:1010000005E612E0009759F1C817D907D9F4C801CD
:101010000E949303CE0102960E949502009709F464
:101020004BC0FC01329709F447C0258136814781C6
:101030008D819E81AF81820F931FA41F858396832C
:10104000A7833AC08C010E5F1F4FC8010E94950212
:10105000009719F480E090E0D5CF0297D3CF5E01DE
:1010600082E0A80EB11CDFB7F894CFB7F89487E6FA
:1010700092E00E9495028C0127E632E001151105ED
:1010800051F4E12CF12CCFBFE114F104A1F0C70120
:101090000E94930310C0A016B10611F4790102C09A
:1010A000E12CF12CC8010E9495029801E114F10491
:1010B00051F78C01E3CFDFBFDFBEDF91CF911F91EE
:1010C0000F91FF90EF90DF90BF90AF9008951F9227
:1010D0000F920FB60F9211242F933F938F939F93EC
:1010E000AF93BF9380910B0390910C03A0910D03DC
:1010F000B0910E0330910A0326E0230F2D3720F420
:101100000296A11DB11D05C029E8230F0396A11D5C
:10111000B11D20930A0380930B0390930C03A093BB
:101120000D03B0930E038091060390910703A091E5
:101130000803B09109030196A11DB11D8093060318
:1011400090930703A0930803B0930903BF91AF9155
:101150009F918F913F912F910F900FBE0F901F90F5
:101160001895CF93DF9300D000D000D0CDB7DEB775
:10117000789484B5826084BD84B5816084BD85B572
:10118000826085BD85B5816085BD80916E0081607E
:1011900080936E0010928100809181008260809324
:1011A0008100809181008160809381008091800026
:1011B0008160809380008091B10084608093B10051
:1011C0008091B00081608093B00080917A0084604B
:1011D00080937A0080917A00826080937A00809177
:1011E0007A008E7F80937A0080917A008068809365
:1011F0007A001092C100E091CA01F091CB0182E027
:101200008083E091C601F091C7011082E091C8018E
:10121000F091C90180E180831092D201E091CE016A
:10122000F091CF0186E08083E091CC01F091CD0177
:10123000808180618083E091CC01F091CD0180813B
:1012400088608083E091CC01F091CD01808180683D
:101250008083E091CC01F091CD0180818F7D8083EE
:1012600083E491E00E94820287E391E00E9482027F
:101270008DEA92E090936C0280936B026091A002E1
:101280007091A10243E050E0CE0101960E948E0CC5
:101290008A8199819C838D838C819D810E94830C9E
:1012A00084E08093C10261E00E9494018FEA92E0A1
:1012B0000E947502E89883E091E090930101809389
:1012C00000018DEC92E09093B8018093B7018BE31D
:1012D00091E00E94820260E082E00E94940189E332
:1012E00091E00E94820287E391E00E94820261E025
:1012F0008AE00E9494011FB7F8948091B90181118E
:1013000027C0E0EFF0E08491ECEDF0E09491E82F5D
:10131000F0E0EE0FFF1FE853FF4FA591B491EC9161
:10132000E92321F461E08AE00E94470161E08AE05C
:101330000E9494018CB580618CBD8CB580648CBD9D
:1013400061E08DE00E94940161E08BE00E949401D5
:101350008091B9018F5F8093B9011FBF0E94710214
:101360004AE14A95F1F700C00E946D0255E85A958E
:10137000F1F700000E9471028AE18A95F1F700C03E
:1013800080E590E00E94E80580E30E94E1050E946C
:10139000E0059AE19A95F1F700C00E946D0203E022
:1013A00011E067E3E62E61E0F62EF80131964491F4
:1013B000F801649123E08DEC92E00E9493070E5FA8
:1013C0001F4FE016F10689F786E691E00E9440077C
:1013D00060EC81E30E94FC050E9459048EE691E0D6
:1013E0000E94820283E30E94EB058FEA93EB019750
:1013F000F1F700C0000023E040EC6EE38DEC92E0DA
:101400000E9493078AEF90E00E94820287E391E0B6
:101410000E94820287E091E0909301018093000195
:10142000809169008C7F826080936900E89A80E1F6
:1014300080938100109280001092850010928400A9
:1014400080E49CE9909387008093860081E18093FB
:10145000810080916F00816080936F008FEA92E03D
:101460000E94EA078FEA92E00E94750248E050E08D
:1014700068EB70E087EB92E00E948E0C8091B702DF
:10148000882351F01092BF021092C00265E672E00C
:101490008FEA92E00E9437030E947E0C6CEA7DE0A6
:1014A0000E94520D8C0108511C4F8FEC92E00E945B
:1014B000EA079801A4E6B0E00E94EB0C28EE33E0C6
:1014C00040E050E00E94C90C2093D4023093D50232
:1014D0004093D60281E08093D7026FEC72E085E6FC
:1014E00092E00E94B60223E041E26DE08DEC92E0D2
:1014F0000E94930723E045E66EE08DEC92E00E94A7
:10150000930723E04AEC6FE08DEC92E00E94930792
:1015100006E787E692E00E9493030097A9F0DC01BA
:10152000129791F014968C9114978F7014968C9357
:101530001497ED91FC9111970190F081E02D65E6F3
:1015400072E0CD010995E5CFE0906B02F0906C025E
:10155000D7019B968C919B97882309F4D4C09B96C6
:101560001C929B979D961C926701BFE2CB0ED11CEB
:1015700060EC8BE30E94FC0518160CF05CC060E880
:101580008FE30E94FC05182F8A3208F045C080E5E1
:1015900090E00E94E8050E9471028FEF0E94E10531
:1015A0009C2C56018A2D8919811738F480E00E94FD
:1015B000E105F50181935F01F5CF0E946D020E9464
:1015C000E00560E88FE30E94FC05282F30E0082E3C
:1015D000000C990B8827990F881F9927982F882727
:1015E000A901481B590BCA0157FD0196959587958E
:1015F000919581959109865BD70191968C9360E8CE
:101600008FE30E94FC0587FD17C083E791E00E94ED
:1016100040078CE691E00DC08EE791E00E94400704
:10162000612F70E080E090E04AE00E9452078AE675
:1016300091E00E94820210E08AE30E94EB05EBE752
:10164000F1E03197F1F700C0000086E30E94EB055E
:101650008DE30E94EB058AE30E94EB0584E30E9480
:10166000EB05112359F1D7019E961C939E979F96E7
:101670008C919F97982F90279F969C9391E0412F54
:1016800050E0BA0161507109292F30E0F601E20FF4
:10169000F31F261737073CF420818452822780836A
:1016A0009F5F822FF1CF9081D701D0968C918927AF
:1016B0008083B60185E792E00E94A60E1093740223
:1016C000F70116A61A30F8F06091A0027091A102FD
:1016D00043E050E0CE0101960E948E0C29819A8150
:1016E0008B8130917802321308C02091790229133E
:1016F00004C090917A02981731F064E772E089E6AD
:1017000092E00E946A040E94F90003CFEAEBF1E044
:101710001382128288EE93E0A0E0B0E08483958388
:10172000A683B78382E191E09183808385EC90E08A
:101730009587848784EC90E09787868780EC90E09B
:10174000918B808B81EC90E0938B828B82EC90E08C
:10175000958B848B86EC90E0978B868B118E128E06
:10176000138E148E10925E02E5E6F2E01182108272
:1017700013821282E0E6F2E011821082138212825A
:101780001482EDEAF2E01582148217821086118627
:1017900088E591E093838283128A138A148A158ADA
:1017A00081E08093B302128E118E148E158E168EE8
:1017B0002EE431E0308F278B178E8093C80211A260
:1017C00015A214A217A210A611A624E431E033A397
:1017D00022A312A68093D30213A614A615A616A6BA
:1017E00017A610AA11AA14AA13AA12AA17AA16AA0F
:1017F00015AA10AE11AEE9E6F2E013821282ABEA4E
:10180000B2E0B583A48316821186108617821286F1
:101810001386148615861686118A108A1786148AEE
:10182000138A128A158A168A80E290E096AB85ABFD
:1018300020E731E030AF27AB11AE15AE14AE1092F9
:10184000A7021092A8021092A9021092AA0220E305
:1018500031E0318320832EE331E033AF22AF8D932B
:101860009C9308958F929F92AF92BF92CF92DF92F6
:10187000EF92FF92CF93DF93EC01688179818A81A7
:101880009B81611571058105910521F464E279ED73
:101890008BE597E02DE133EF41E050E00E94970C9B
:1018A00049015A019B01AC01A7EAB1E40E94B60CC0
:1018B0006B017C01ACEEB4EFA50194010E94C40C55
:1018C000DC01CB018C0D9D1DAE1DBF1DB7FF03C0FC
:1018D0000197A109B04888839983AA83BB839F7726
:1018E000DF91CF91FF90EF90DF90CF90BF90AF90BE
:1018F0009F908F9008950E94320C089584E091E0AB
:101900000E94320C0895A0E0B0E08093040190930F
:101910000501A0930601B09307010895FB01DC01C6
:1019200002C005900D9241505040D8F70895052E01
:1019300097FB1EF400940E94AE0C57FD07D00E9446
:10194000C90C07FC03D04EF40C94AE0C5095409596
:10195000309521953F4F4F4F5F4F0895909580955B
:10196000709561957F4F8F4F9F4F08950E94EB0CAC
:10197000A59F900DB49F900DA49F800D911D1124E3
:101980000895B7FF0C94B60C0E94B60C821B930B03
:101990000895A1E21A2EAA1BBB1BFD010DC0AA1FB0
:1019A000BB1FEE1FFF1FA217B307E407F50720F0C8
:1019B000A21BB30BE40BF50B661F771F881F991F43
:1019C0001A9469F760957095809590959B01AC018C
:1019D000BD01CF010895A29FB001B39FC001A39F95
:1019E000700D811D1124911DB29F700D811D112458
:1019F000911D08950E94310D88F09F5798F0B92FDE
:101A00009927B751B0F0E1F0660F771F881F991F33
:101A10001AF0BA95C9F714C0B13091F00E944B0D7D
:101A2000B1E008950C944B0D672F782F8827B85F8D
:101A300039F0B93FCCF3869577956795B395D9F78B
:101A40003EF490958095709561957F4F8F4F9F4F95
:101A5000089557FD9058440F551F59F05F3F71F09E
:101A60004795880F97FB991F61F09F3F79F0879505
:101A70000895121613061406551FF2CF4695F1DF8E
:101A800008C0161617061806991FF1CF869571051E
:101A9000610508940895E894BB2766277727CB0152
:101AA00097F9089597FB072E16F4009407D077FD59
:101AB00009D00E94660D07FC05D03EF490958195F3
:101AC0009F4F0895709561957F4F0895AA1BBB1B8A
:101AD00051E107C0AA1FBB1FA617B70710F0A61B2E
:101AE000B70B881F991F5A95A9F780959095BC014F
:101AF000CD010895EE0FFF1F0590F491E02D09949C
:101B00000F931F93CF93DF938230910510F482E0FF
:101B100090E0E0911103F091120320E030E0A0E0AA
:101B2000B0E0309719F1408151810281138148174B
:101B30005907C8F08417950769F4109731F0129689
:101B40000C93129713961C9327C0009311031093C4
:101B5000120322C02115310519F04217530718F45A
:101B60009A01BD01EF01DF01F801DBCF211531053D
:101B7000F9F0281B390B2430310580F48A819B81D0
:101B80006115710521F0FB019383828304C090935A
:101B9000120380931103FE01329644C0FE01E20F4E
:101BA000F31F8193919322503109398328833AC0DE
:101BB00020910F0330911003232B41F420910A014F
:101BC00030910B013093100320930F0320910801F3
:101BD000309109012115310541F42DB73EB74091EF
:101BE0000C0150910D01241B350BE0910F03F09176
:101BF0001003E217F307A0F42E1B3F0B2817390739
:101C000078F0AC014E5F5F4F2417350748F04E0F58
:101C10005F1F5093100340930F038193919302C071
:101C2000E0E0F0E0CF01DF91CF911F910F91089597
:101C3000CF93DF93009709F481C0FC0132971382A0
:101C40001282A0911103B0911203109781F42081A8
:101C50003181820F931F20910F03309110032817B9
:101C6000390751F5F0931003E0930F0367C0ED01BE
:101C700020E030E0CE17DF0740F44A815B819E010F
:101C800041155105F1F0EA01F5CFD383C2834081BC
:101C90005181840F951FC817D90759F488819981FC
:101CA000840F951F0296918380838A819B81938301
:101CB00082832115310529F4F0931203E093110377
:101CC0003DC0E901FB83EA8349915991C40FD51FB7
:101CD000EC17FD0761F480819181840F951F0296B6
:101CE000E90199838883828193819B838A83E0E0E1
:101CF000F0E012968D919C911397009719F0FD01D9
:101D0000DC01F7CF8D919C9111979D012E5F3F4F84
:101D1000820F931F20910F0330911003281739076A
:101D200069F4309729F4109212031092110302C043
:101D300013821282B0931003A0930F03DF91CF910F
:101D4000089581E090E0F8940C94AF0EFB01DC0163
:101D500002C001900D9241505040D8F70895F89478
:021D6000FFCFB3
:101D620003010301010000000000130380000000D2
:101D720000007F0614064206C606ED0051066506FF
:101D820000000000810222013E0611010000000055
:101D920093021C013E066A041401C6FF00001301EF
:101DA2000000000004017F021E0100000000040187
:101DB20094022401000000006C0380022001000054
:101DC200000073063B0043432056657273696F6ED1
:101DD2003A2000435243204661696C6564005061B9
:101DE200636B657420746F6F206269673A200045E7
:101DF20072726F722061742000206578706563745E
:0E1E020065643A200020726561643A20000099
:107800000C94343C0C94513C0C94513C0C94513CE1
:107810000C94513C0C94513C0C94513C0C94513CB4
:107820000C94513C0C94513C0C94513C0C94513CA4
:107830000C94513C0C94513C0C94513C0C94513C94
:107840000C94513C0C94513C0C94513C0C94513C84
:107850000C94513C0C94513C0C94513C0C94513C74
:107860000C94513C0C94513C11241FBECFEFD8E036
:10787000DEBFCDBF11E0A0E0B1E0EAE8FFE702C063
:1078800005900D92A230B107D9F712E0A2E0B1E065
:1078900001C01D92AD30B107E1F70E942D3D0C945F
:1078A000C33F0C94003C982F95959595959595958B
:1078B000905D8F708A307CF0282F295A8091C0000B
:1078C00085FFFCCF9093C6008091C00085FFFCCF60
:1078D0002093C6000895282F205DF0CF982F809127
:1078E000C00085FFFCCF9093C6000895EF92FF92F1
:1078F0000F931F93EE24FF2487018091C00087FD22
:1079000017C00894E11CF11C011D111D81E2E8164D
:1079100081EAF80687E0080780E0180770F3E09135
:107920000401F091050109958091C00087FFE9CF1E
:107930008091C6001F910F91FF90EF9008950E94D3
:10794000763C982F8091C00085FFFCCF9093C600B5
:1079500091362CF490330CF09053892F089597555D
:10796000892F08951F930E949F3C182F0E949F3CCF
:107970001295107F810F1F9108951F93182F882350
:1079800021F00E94763C1150E1F71F9108951F935A
:10799000182F0E94763C803249F0809103018F5F5E
:1079A000809303018530C1F01F9108958091C0003C
:1079B00085FFFCCF84E18093C6008091C00085FFE5
:1079C000FCCF1093C6008091C00085FFFCCF80E102
:1079D0008093C6001F910895E0910401F091050184
:1079E00009951F9108950E94763C803241F0809164
:1079F00003018F5F80930301853081F008958091AA
:107A0000C00085FFFCCF84E18093C6008091C00058
:107A100085FFFCCF80E18093C6000895E0910401CA
:107A2000F09105010995089548EC50E08823A1F0F4
:107A30002D9A28EE33E0FA013197F1F721503040CA
:107A4000D1F72D9828EE33E0FA013197F1F7215064
:107A50003040D1F7815061F708953F924F925F9285
:107A60006F927F928F929F92AF92BF92CF92DF924E
:107A7000EF92FF920F931F93CF93DF93000082E06A
:107A80008093C00080E18093C4001092C50088E11B
:107A90008093C10086E08093C2005098589A259A3E
:107AA00081E00E94143D24E1F22E9EE1E92E85E959
:107AB000D82E0FE0C02E10E1B12EAA24A394B1E479
:107AC0009B2EA6E58A2EF2E57F2EE0E26E2E79E46B
:107AD000572E63E5462E50E5352E0E94763C8033C6
:107AE000B1F18133B9F1803409F46FC0813409F404
:107AF00076C0823409F485C0853409F488C08035A5
:107B000031F1823521F1813511F1853509F485C0D6
:107B1000863509F48DC0843609F496C0843709F49B
:107B200003C1853709F472C1863709F466C08091B4
:107B300003018F5F80930301853079F6E0910401A2
:107B4000F091050109950E94763C803351F60E9420
:107B5000F33CC3CF0E94763C803249F78091C0004D
:107B600085FFFCCFF092C6008091C00085FFFCCF5E
:107B70009092C6008091C00085FFFCCF8092C60025
:107B80008091C00085FFFCCF7092C6008091C0003C
:107B900085FFFCCF6092C6008091C00085FFFCCFBE
:107BA0005092C6008091C00085FFFCCF4092C60075
:107BB0008091C00085FFFCCF3092C6008091C0004C
:107BC00085FFFCCFB092C60088CF0E94763C8638F5
:107BD00008F4BDCF0E94763C0E94F33C7ECF0E9409
:107BE000763C803809F49CC0813809F40BC1823896
:107BF00009F430C1883909F48FC080E00E94C73C85
:107C00006CCF84E10E94BD3C0E94F33C66CF85E0CE
:107C10000E94BD3C0E94F33C60CF0E94763C809362
:107C200006010E94763C809307010E94F33C55CFE9
:107C30000E94763C803309F411C183E00E94BD3C70
:107C400080E00E94C73C49CF0E94763C80930902A5
:107C50000E94763C8093080280910C028E7F809374
:107C60000C020E94763C853409F409C18091080217
:107C700090910902892B89F000E010E00E94763C87
:107C8000F801E85FFE4F80830F5F1F4F809108026D
:107C9000909109020817190788F30E94763C8032F8
:107CA00009F045CF80910C0280FFF5C0609106017C
:107CB00070910701660F771F7093070160930601AB
:107CC000A0910802B09109021097C9F0E8E0F1E034
:107CD0009B01AD014E0F5F1FF999FECF32BD21BD53
:107CE000819180BDFA9AF99A2F5F3F4FE417F5070B
:107CF00099F76A0F7B1F70930701609306018091CB
:107D0000C00085FFFCCFF092C6008091C00085FFC7
:107D1000FCCFB092C600E1CE83E00E94C73CDDCE2E
:107D200082E00E94C73CD9CE0E94763C8093090233
:107D30000E94763C80930802809106019091070191
:107D4000880F991F90930701809306010E94763C4B
:107D5000853409F49AC080910C028E7F80930C02C6
:107D60000E94763C803209F0B8CE8091C00085FF39
:107D7000FCCFF092C600A0910802B09109021097C2
:107D8000C1F180910C02082F0170182F1695117007
:107D9000E0910601F0910701AF014F5F5F4FBA011B
:107DA00020E030E00023B1F4112339F49491809164
:107DB000C00085FFFCCF9093C6002F5F3F4FCB01E3
:107DC0000196FA012A173B0780F4BC014F5F5F4F11
:107DD000002351F3F999FECFF2BDE1BDF89A90B5B9
:107DE0008091C00085FFFCCFE6CF709307016093C0
:107DF00006018091C00085FDE5CE8091C00085FF21
:107E0000F8CFE0CE81E00E94C73C67CE0E94763C6E
:107E1000803209F08CCE8091C00085FFFCCFF092BB
:107E2000C6008091C00085FFFCCFE092C600809123
:107E3000C00085FFFCCFD092C6008091C00085FFB6
:107E4000FCCFC092C6008091C00085FFFCCFB092ED
:107E5000C60043CE80E10E94C73C3FCE0E94763CE4
:107E60000E94763C182F0E94763C112309F483C0AF
:107E7000113009F484C08FE00E94C73C2ECE80915F
:107E80000C02816080930C02F1CE80910C02816023
:107E900080930C0265CF809107018823880F880B9F
:107EA0008A2180930B028091060190910701880F2F
:107EB000991F90930701809306018091080280FF2B
:107EC00009C08091080290910902019690930902DD
:107ED00080930802F894F999FECF1127E0910601EA
:107EE000F0910701C8E0D1E0809108029091090269
:107EF000103091F40091570001700130D9F303E084
:107F000000935700E8950091570001700130D9F3B4
:107F100001E100935700E8950990199000915700EE
:107F200001700130D9F301E000935700E8951395F3
:107F3000103498F011270091570001700130D9F3E7
:107F400005E000935700E89500915700017001305B
:107F5000D9F301E100935700E8953296029709F0B2
:107F6000C7CF103011F00296E5CF11248091C000E8
:107F700085FFC5CEC8CE8EE10E94C73CAECD85E957
:0A7F80000E94C73CAACDF894FFCF81
:027F8A00800075
:040000030000780081
:00000001FF
